:100000000C942A000C9447000C9447000C94470071
:100010000C9447000C9447000C9447000C94470044
:100020000C9447000C9447000C9447000C94470034
:100030000C9447000C9447000C9447000C94470024
:100040000C9447000C9447000C9447000C94470014
:100050000C94470011241FBECFE5D8E0DEBFCDBF12
:1000600012E0A0E6B0E0ECE5FDE202C005900D92E2
:10007000AE36B107D9F715E0AEE6B2E001C01D9289
:10008000A330B107E1F70E94AB090C94AC160C94B5
:10009000000080FF02C0C39A01C0C39881FF02C064
:1000A000C29A01C0C29882FF02C0AF9A01C0AF9845
:1000B00083FF02C0C09A0895C09808951F93182F17
:1000C000AC9A82958F700E944900AC98AC9A812FAF
:1000D0000E944900AC9885E88A95F1F71F91089530
:1000E000AB980E945E000895AB9A0E945E0008954E
:1000F000CF93DF93EC0103C021960E9474008881A6
:100100008823D1F7DF91CF9108956295660F660F2E
:10011000607C680F862F80680E947000089581E0DF
:100120000E94700080EA9FE00197F1F7089582E055
:100130000E94700080EA9FE00197F1F708951F93F5
:10014000CF93DF93BB9ABA9AA79AB89AA49AA39A24
:1001500080E395E70197F1F7AB98AC9810E0C0E128
:10016000D7E2AC9A83E00E944900AC98CE01019797
:10017000F1F71F5F1330A9F7AC9A82E00E944900A3
:10018000AC9880ED97E00197F1F788E20E9470004B
:1001900088E00E94700081E00E94700080EA9FE089
:1001A0000197F1F786E00E9470008CE00E947000D9
:1001B000DF91CF911F910895A89AA99AA19AA09A28
:1001C0008AE1982F9A95F1F7A998982F9A95F1F7C7
:1001D000A8988A95F1F70895A19AA89A8AE1982F8C
:1001E0009A95F1F7A99A8A95F1F70895A198A99A95
:1001F0009AE19A95F1F720E030E04AE1A89A942F2D
:100200009A95F1F7330F99993160A898942F9A95A0
:10021000F1F72F5F283091F7A19A882311F4A9985C
:1002200001C0A99A8AE1982F9A95F1F7A89A982F78
:100230009A95F1F7A898982F9A95F1F7A9988A9529
:10024000F1F7832F0895A19A20E04AE187FF02C0C9
:10025000A99A01C0A9983AE1942F9A95F1F7A89A22
:10026000942F9A95F1F7A8982F5F283011F0880FF6
:10027000EDCFA198A99A832F8A95F1F7A89A832F99
:100280008A95F1F78FEF2AE1999B05C0922F9A95F5
:10029000F1F78150C9F7A8989AE19A95F1F7089576
:1002A000982F82958F70880F282F220F220F820F90
:1002B0009F70890F0895282F6AE00E943916382F01
:1002C0003295307F822F0E943916832F890F08952F
:1002D0001F93182F0E94DC0082EA0E942301812FC5
:1002E0000E9423010E94DC0083EA0E94230181E036
:1002F0000E94F600182F0E94EC00812F1F91089594
:1003000080E00E9468018093B30208950F931F93C9
:10031000182F062F0E94DC0082EA0E942301812F01
:100320000E942301802F0E9423010E94EC001F9154
:100330000F9108950E9480016091B3026062609302
:10034000B30280E00E94860108950E9480016091BE
:10035000B3026F7D6093B30280E00E94860108952E
:10036000482F362F862F6AE00E943916282F2295B3
:10037000207F832F0E943916290F842F622F0E941D
:10038000860108951092B30280E060E00E94860129
:1003900081E060E00E9486018DE060E00E948601BD
:1003A0008EE060E00E9486010895CF92DF92EF9286
:1003B000FF920F931F936C017B018A0182E00E94E0
:1003C0006801982F9695969596959E70292F220FE5
:1003D000220F920F8F70980FF801908383E00E9494
:1003E0006801982F9695969596959E70292F220FC5
:1003F000220F920F8F70980FF701908384E00E9474
:100400006801982F9695969596959670292F220FAC
:10041000220F920F8F70980FF60190831F910F910A
:10042000FF90EF90DF90CF900895FF920F931F936E
:10043000F82E062F142F0E949A0182E0612F0E944D
:10044000B00183E0602F0E94B00184E06F2D0E9414
:10045000B0010E94A5011F910F91FF900895CF92C6
:10046000DF92EF92FF920F931F938C017B016A0141
:1004700085E00E946801982F9695969596959670BE
:10048000292F220F220F920F8F70980FF80190835F
:1004900087E00E946801982F9695969596959270A0
:1004A000292F220F220F920F8F70980FF701908340
:1004B00088E00E946801F60180831F910F91FF90F0
:1004C000EF90DF90CF900895FF920F931F93182F16
:1004D000F62E042F0E949A0188E0602F0E94860168
:1004E00085E0612F0E94B00187E06F2D0E94B0016E
:1004F0000E94A5011F910F91FF9008951BBA87E0FC
:100500008ABB8FEE88BB8FEB87BB15BA14BA12BAC1
:1005100086E081BB089520E04CE251E0D89ACA0100
:100520000197F1F7D898CA010197F1F72F5F2436A8
:10053000A9F708950E948B0288EE93E028EC30E042
:10054000F9013197F1F70197D9F70E948B0288EEF4
:1005500093E028EC30E0F9013197F1F70197D9F7F2
:100560000E948B02089581991AC0D9988091C50282
:100570009091C602019731F58091C3029091C40217
:10058000892B31F482E090E09093C4028093C302FF
:1005900082E090E09093C6028093C50213C0D99A7E
:1005A00081E090E09093C6028093C5028091BC02E6
:1005B0009091BD02892B31F482E090E09093BD02CE
:1005C0008093BC02829919C0DA982091C9043091B5
:1005D000CA042130310511F58091C3029091C40203
:1005E000892B21F43093C4022093C30282E090E06F
:1005F0009093CA048093C90411C0DA9A21E030E0D4
:100600003093CA042093C9048091BC029091BD022A
:10061000892B21F43093BD022093BC024091C30288
:100620005091C4024115510509F449C08091C50299
:100630009091C6028130910509F441C02091C9040E
:100640003091CA0421303105D1F1029711F52230E1
:100650003105E1F48091BC029091BD02019759F4FB
:100660004130510529F45093E3044093E20417C04C
:1006700083E090E010C04130510519F484E090E02F
:100680000AC03093E3042093E20409C086E090E0BE
:1006900002C085E090E09093E3048093E20410921E
:1006A000CA041092C9041092C6021092C502109298
:1006B000BD021092BC021092C4021092C3020895AF
:1006C0000F931F93DF93CF93CDB7DEB762970FB62B
:1006D000F894DEBF0FBECDBF8091FE0490E0BE0156
:1006E0006F5F7F4F4AE050E00E9467168091FE04E2
:1006F00099818A3030F0909376028A8180937702D4
:1007000005C080E380937602909377028FE2809316
:1007100078028091DD0490E0BE016F5F7F4F4AE078
:1007200050E00E9467168091DD0499818A3030F094
:10073000909379028A8180937A0205C080E3809346
:10074000790290937A028FE280937B028091E50494
:1007500090E08E010F5F1F4FB8014AE050E00E9409
:100760006716898180937C028A8180937D028B81C8
:1007700080937E028C8180937F0280E2809380024E
:100780008091DE0490E0B8014AE050E00E946716D4
:100790008091DE0499818A3030F0909381028A81C1
:1007A0008093820205C080E380938102909382024D
:1007B0008AE3809383028091C20290E0BE016F5F62
:1007C0007F4F4AE050E00E9467168091C2029981F3
:1007D0008A3030F0909384028A818093850205C02C
:1007E00080E380938402909385028AE3809386025B
:1007F0008091E40490E0BE016F5F7F4F4AE050E0DB
:100800000E9467168091E40499818A3030F09093B9
:1008100087028A818093880205C080E380938702E3
:100820009093880280E28093890262960FB6F894D2
:10083000DEBF0FBECDBFCF91DF911F910F91089505
:100840000F931F93DF93CF93CDB7DEB762970FB6A9
:10085000F894DEBF0FBECDBF462F8E010F5F1F4F36
:10086000B80150E00E946716C8010E9478006296A5
:100870000FB6F894DEBF0FBECDBFCF91DF911F91B1
:100880000F9108958091FE048A3020F480E690E074
:100890000E9478008091FE0490E06AE00E942004AB
:1008A00082E690E00E9478008091DD048A3020F496
:1008B00080E690E00E9478008091DD0490E06AE09C
:1008C0000E94200408958EEF94E06DED74E045EEF3
:1008D00054E00E942F020E94420484E690E00E94AD
:1008E00078008091E5048F3118F08EE08093E50464
:1008F0008091E50490E06AE00E94200408958091D0
:10090000DE048A3020F480E690E00E947800809136
:10091000DE0490E06AE00E94200488E690E00E94F5
:1009200078008091C2028A3020F480E690E00E9434
:1009300078008091C20290E06AE00E94200408954D
:100940008EED94E062EC72E044EE54E00E94D5013A
:100950000E947F0488E690E00E9478008091E40481
:100960008A3020F480E690E00E9478008091E404D0
:1009700090E06AE00E942004089588EE93E028EC5D
:1009800030E0F9013197F1F70197D9F78EED94E056
:1009900062EC72E044EE54E00E94D5018EEF94E0E8
:1009A0006DED74E045EE54E00E942F029091E40456
:1009B00080919B02981739F190939B020E948F00BF
:1009C0008AE690E00E9478000E94630480E061E083
:1009D0000E94850081E790E00E9478000E94A004B8
:1009E0008EE061E00E9485008091E0049091E10436
:1009F000019729F488E790E00E94780008958BE73A
:100A000090E00E94780008950E948F008091DB049E
:100A10009091DC048630910509F481C087309105FE
:100A20009CF48230910509F44AC08330910524F486
:100A3000019709F0C9C018C08430910509F451C06C
:100A4000059709F0C1C05CC08830910509F489C0E0
:100A5000883091050CF472C08930910509F499C071
:100A60000C9709F0B1C09EC088E893E128EC30E013
:100A7000F9013197F1F70197D9F78EE790E00E94DD
:100A8000780082E061E00E94850089E890E00E94A1
:100A9000780080E29EE428EC30E0F9013197F1F72C
:100AA0000197D9F70E948F0082E990E00E947800B8
:100AB00082E061E00E94850089E990E070C00E94B8
:100AC000BD048EE061E00E9485008091E004909179
:100AD000E104019719F488E790E061C08BE790E0AA
:100AE0005EC083EA90E00E94780082E061E00E94AC
:100AF000850084EB90E00E9478008091DE042CC099
:100B00008DEB90E00E94780082E061E00E94850019
:100B10008EEC90E00E9478008091C2021DC086EDAC
:100B200090E00E94780082E061E00E94850086EEFD
:100B300090E00E9478008091FE040EC08DEE90E05F
:100B40000E94780082E061E00E9485008EEF90E0D4
:100B50000E9478008091DD0490E06AE00E94200409
:100B6000089587E091E00E94780080E061E00E94B3
:100B700085008091E0049091E104009719F00197BD
:100B800019F504C088E191E00E94780089E291E0C3
:100B900006C08AE391E00E9478008FE892E00E940C
:100BA0007800089582E491E00E94780082E061E09C
:100BB0000E94850082E591E00E9478008091E50422
:100BC00090E06AE00E9420040895CF93DF9388E0CC
:100BD00090E09093DC048093DB040E940405C8EC51
:100BE000D0E0CD990EC00E948B02CD9BFECF84EF4A
:100BF00091E028EC30E0F9013197F1F70197D9F74E
:100C00001FC0CB99EECF0E948B02CB9BFECF84EF0F
:100C100091E0FE013197F1F70197D9F78091E00457
:100C20009091E10401969093E1048093E00402978F
:100C300024F01092E1041092E0040E940405D1CF48
:100C4000DF91CF9108952F923F924F925F926F92D2
:100C50007F928F929F92AF92BF92CF92DF92EF924C
:100C6000FF920F931F93CF93DF938CE090E09093CC
:100C7000DC048093DB040E940405C8ECD0E064E04F
:100C8000C62ED12C55E0452E512C41E0E42EF12CFE
:100C90003CE0832E912C27E0622E712C02E010E0C4
:100CA00096E0A92EB12C83E0282E312C8091F704F8
:100CB0009091F8048230910509F4A6C08330910523
:100CC00034F4009761F081309105A1F756C083306C
:100CD000910509F4E0C08430910561F722C1CD99F6
:100CE0000EC00E948B02CD9BFECF84EF91E028ECDA
:100CF00030E0F9013197F1F70197D9F759C1CC9953
:100D000026C00E948B02CC9BFECF84EF91E0FE01B7
:100D10003197F1F70197D9F79092DC048092DB04C8
:100D200010937502009374028091E5048F5F8093A5
:100D3000E5048E3018F48EE08093E5048091E5049C
:100D40008F3108F432C18EE08093E5042EC1CB9937
:100D5000ADCF0E948B02CB9BFECF84EF91E0FE01D2
:100D60003197F1F70197D9F7F092F804E092F70480
:100D70007092DC046092DB0418C1CD990EC00E9411
:100D80008B02CD9BFECF84EF91E028EC30E0F9019F
:100D90003197F1F70197D9F70BC1CC991FC00E9489
:100DA0008B02CC9BFECF84EF91E0FE013197F1F7EF
:100DB0000197D9F77092DC046092DB0410937502FE
:100DC000009374028091DD048F5F8093DD048D3089
:100DD00008F4EBC081E08093DD04E7C0CB9966CFD7
:100DE0000E948B02CB9BFECF84EF91E0FE013197F6
:100DF000F1F70197D9F71093F8040093F704B09234
:100E0000DC04A092DB04D1C0CD990EC00E948B02FD
:100E1000CD9BFECF84EF91E028EC30E0F9013197D3
:100E2000F1F70197D9F7C4C0CC991FC00E948B027B
:100E3000CC9BFECF84EF91E0FE013197F1F7019753
:100E4000D9F7B092DC04A092DB04109375020093F2
:100E500074028091FE048F5F8093FE04803208F458
:100E6000A4C081E08093FE04A0C0CB991FCF0E9454
:100E70008B02CB9BFECF84EF91E0FE013197F1F71F
:100E80000197D9F73092F8042092F704D092DC044D
:100E9000C092DB048AC0CD990EC00E948B02CD9B0C
:100EA000FECF84EF91E028EC30E0F9013197F1F7C3
:100EB0000197D9F77DC0CC991EC00E948B02CC9BB4
:100EC000FECF84EF91E0FE013197F1F70197D9F75A
:100ED000D092DC04C092DB04F0927502E0927402BE
:100EE0008091DE048F5F8093DE04883108F45DC05A
:100EF0001092DE045AC0CB99D9CE0E948B02CB9BB4
:100F0000FECF84EF91E0FE013197F1F70197D9F719
:100F1000D092F804C092F7045092DC044092DB04B3
:100F200044C0CD990EC00E948B02CD9BFECF84EFB2
:100F300091E028EC30E0F9013197F1F70197D9F70A
:100F400037C0CC991DC00E948B02CC9BFECF84EF92
:100F500091E0FE013197F1F70197D9F75092DC0447
:100F60004092DB04F0927502E09274028091C2021A
:100F70008F5F8093C2028C33C0F01092C20215C002
:100F8000CB9994CE0E948B02CB9BFECF84EF91E055
:100F9000FE013197F1F70197D9F71092F8041092FA
:100FA000F7049092DC048092DB040E9404057ECE5C
:100FB000DF91CF911F910F91FF90EF90DF90CF9035
:100FC000BF90AF909F908F907F906F905F904F9069
:100FD0003F902F900895BC0190E00AC0E92FF0E007
:100FE000DF01AF59BD4F8C91E456FD4F80839F5F69
:100FF0009930A0F39093D6048CE992E00E940311FB
:1010000020ED37E048EC50E0FA013197F1F721503C
:101010003040D1F7882309F46DC0823021F183304C
:1010200020F4813009F066C006C08330A1F184301D
:1010300009F060C048C00E948F0089E591E00E94DD
:10104000780080E061E00E94850088E691E00E94DF
:10105000780080E29EE428EC30E0F9013197F1F766
:101060000197D9F708950E948F0089E791E00E94C7
:10107000780080E061E00E94850089E891E00E94AC
:10108000780080E29EE428EC30E0F9013197F1F736
:101090000197D9F708950E948F0082E991E00E949C
:1010A000780080E061E00E9485008EE991E00E9476
:1010B000780080E29EE428EC30E0F9013197F1F706
:1010C0000197D9F708950E948F0086EA91E00E9467
:1010D000780080E061E00E94850083EB91E00E944F
:1010E000780080E29EE428EC30E0F9013197F1F7D6
:1010F0000197D9F708950E9460030E948F0089EB41
:1011000091E00E94780080E061E00E94850080917B
:10111000E2049091E3048330910529F18430910534
:101120003CF48130910569F0029709F041C012C08A
:101130008530910551F185309105F4F00697C1F5A0
:101140002DC087E580938A0285E480938B0287EC2B
:1011500091E02CC087E580938A0289E580938B0219
:101160008AEC91E023C08FE480938A028AE5809321
:101170008B028DEC91E01AC08FE480938A0287E5A0
:1011800080938B0280ED91E011C08FE480938A02FE
:1011900088E580938B0283ED91E008C08FE4809313
:1011A0008A0289E580938B0286ED91E00E947800A7
:1011B00086E792E00E94EB0780E29EE428EC30E0B4
:1011C000F9013197F1F70197D9F71092E3041092E2
:1011D000E20408958091E0049091E104019741F4C4
:1011E0008091E2049091E304892B11F00E947B0826
:1011F0000895CF93DF931092DF04C0E0D0E00E9407
:101200001815882369F12196CA30D105C1F78130BC
:1012100069F40E948F0089ED91E00E94780080E0DF
:1012200061E00E94850081EE91E00EC0823071F491
:101230000E948F0089ED91E00E94780080E061E0DB
:101240000E9485008FEE91E00E94780080E29EE48B
:1012500028EC30E0F9013197F1F70197D9F7FFCF8A
:101260008091DF04823089F08330E1F0813039F5FC
:101270000E948F008DEF91E00E94780080E061E095
:101280000E9485008BE092E026C00E948F0084E1DE
:1012900092E00E94780080E061E00E9485008FE18A
:1012A00092E019C00E948F008DEF91E00E947800BB
:1012B00080E061E00E94850080E392E00CC00E9423
:1012C0008F008DEF91E00E94780080E061E00E9445
:1012D000850089E392E00E94780080E29EE428EC99
:1012E00030E0F9013197F1F70197D9F780E58DB931
:1012F000709A80ED97E00197F1F70E94420D8823E4
:1013000071F00E948F0084E492E00E94780080E0F7
:1013100061E00E94850083E592E00E947800DF9101
:10132000CF910895F8940E947E020E940B1615BE7C
:101330001BBE19BE919A929ADB9ADC9ADD9A0E94A2
:101340009F0080ED97E028EC30E0F9013197F1F74C
:101350000197D9F70895CF93DF930E9492090E94D5
:10136000F9080E949A020E94C20181E090E09093E5
:10137000E1048093E004C8ECD0E080917402909185
:101380007502892BA9F01092750210927402809157
:10139000DE046091C20240E00E9415028091FE04CA
:1013A0006091DD044091E5040E9464020E949A026B
:1013B000CB9911C00E948B02CB9BFECF84EF91E0B2
:1013C000FE013197F1F70197D9F71092F8041092C6
:1013D000F7040E942306CC990DC00E948B02CC9B7F
:1013E000FECF84EF91E0FE013197F1F70197D9F735
:1013F0000E94E5058091740290917502892B11F489
:101400000E94BD040E94B3020E94EA08B6CFEF9288
:10141000FF920F931F932091C7043091C804E0906E
:10142000A902F090AA020091AB021091AC026250A6
:1014300070408040904040E050E00E941A169B01AE
:10144000AC012E0D3F1D401F511FB901CA011F9154
:101450000F91FF90EF9008950F931F93DF93CF9319
:10146000CDB7DEB72B970FB6F894DEBF0FBECDBF5A
:101470008C01582FA12FFC0140E080818E3219F49D
:10148000493030F061C04F5F31964C30B1F75CC0ED
:10149000BE016F5F7F4F852F9A2F9C01F901DB0101
:1014A00002C081918D938E2F851B8417D0F3842FDA
:1014B0009E012F5F3F4F90E205C0F901E80FF11D3B
:1014C00090838F5F8830C9F7242F2F5FAE014F5F65
:1014D0005F4F30E2F801E20FF11D9081992359F03E
:1014E000FA01E80FF11D90832F5F07C0FA01E80FA2
:1014F000F11D30838F5F8B30C8F38F5F8B3050F3DB
:101500009E01245F3F4FFB019081892F81568A31D4
:1015100010F4905290836F5F7F4F6217730799F7B3
:1015200020E030E0AE014F5F5F4FF801E20FF31FA4
:10153000DA01A20FB31F8C9180832F5F3F4F2B30B6
:10154000310599F780E001C081E02B960FB6F89441
:10155000DEBF0FBECDBFCF91DF911F910F910895D8
:101560001F931CE0153011F0193009F41150CB0114
:10157000BA012AE030E040E050E00E944516C9017F
:10158000DA01AC01BD01411551056105710511F08C
:10159000115041F71F9108956F927F928F929F9201
:1015A000AF92BF92CF92DF92EF92FF920F931F9371
:1015B00060783B014C0122E0660C771C881C991C6A
:1015C0002A95D1F75B016C0150C0E090D404F090F3
:1015D000D5042091B1023091B20200E010E0809178
:1015E000CB049091CC04A091CD04B091CE04E80E30
:1015F000F91E0A1F1B1F40E050E0C401B3010E9406
:101600004516E20EF31E041F151FC801B7010E9404
:10161000DA1560E0E62FF0E0EE0FFF1FEE0FFF1F80
:10162000E953FD4F80819181A281B381BF70009702
:10163000A105B10539F4A6019501260F311D411D03
:10164000511D25C06F5F603829F780E890E0A0E069
:10165000B0E0A80EB91ECA1EDB1E80E092E0A0E03A
:10166000B0E0680E791E8A1E9B1E8091B402909194
:10167000B502A091B602B091B702A816B906CA0683
:10168000DB0608F4A2CF20E030E040E050E0B901F2
:10169000CA011F910F91FF90EF90DF90CF90BF9004
:1016A000AF909F908F907F906F900895CF92DF9230
:1016B000EF92FF920F931F93D82EC62E79018A01C5
:1016C0006091CB047091CC048091CD049091CE04B4
:1016D0006F5F7F4F8F4F9F4F0E94DA158091C70237
:1016E0009091C802A091C902B091CA028255924558
:1016F000A146B14409F054C08091AB049091AC0470
:10170000A091AD04B091AE0482579247A144B14676
:1017100009F046C08091C3049091C404A091C5040F
:10172000B091C60480509040A545BA4AC9F5CC2076
:10173000A9F481E0D81649F42091AF043091B004A7
:101740004091B1045091B2042FC02091B304309164
:10175000B4044091B5045091B60426C021E0D216DD
:1017600049F4E092AF04F092B0040093B1041093F6
:10177000B20408C0E092B304F092B4040093B5043C
:101780001093B6046091CB047091CC048091CD0489
:101790009091CE046F5F7F4F8F4F9F4F0E948C15AB
:1017A0002FEF3FEF4FEF5FEFB901CA011F910F918C
:1017B000FF90EF90DF90CF900895DF92EF92FF922D
:1017C0000F931F93D82EDB01CA01E9E0B695A795C8
:1017D00097958795EA95D1F75170607070704115B3
:1017E00051056105710519F4AC01BD0106C0AC01DC
:1017F000BD014F5F5F4F6F4F7F4FDB01CA0133E089
:10180000B695A795979587953A95D1F747705070FB
:1018100060707070411551056105710519F47C0106
:101820008D0107C07C018D010894E11CF11C011D94
:10183000111D8091F9048823D9F081E060E020E057
:1018400030E040E050E00E94560BDD2039F49B016F
:10185000AC012E0D3F1D401F511F06C09B01AC0166
:101860002E193F09400B510B81E061E00E94560B9D
:101870001F910F91FF90EF90DF9008952F923F926C
:101880004F925F926F927F928F929F92AF92BF9290
:10189000CF92DF92EF92FF920F931F932091B402A9
:1018A0003091B5024091B6025091B7026091C704E1
:1018B0007091C80480E090E00E941A161AE0969594
:1018C0008795779567951A95D1F72091B102309158
:1018D000B20240E050E00E941A16AB01BC0181E068
:1018E0000E94B00A81E060E020E030E040E050E09B
:1018F0000E94560B3B014C018091B4029091B502BD
:10190000A091B602B091B70286159705A805B90552
:1019100008F07CC01092F904A090B802B090B9020F
:10192000C090BA02D090BB02B2E0AA0CBB1CCC1C87
:10193000DD1CBA95D1F76624772443012224332491
:101940002101E090D404F090D5042091B1023091AF
:10195000B20200E010E08091CB049091CC04A09101
:10196000CD04B091CE04E80EF91E0A1F1B1F40E003
:1019700050E0C601B5010E944516E20EF31E041F99
:10198000151FC801B7010E94DA15A201910160E09C
:1019900070E0FB01E953FD4F80819181A281B38109
:1019A000BF700097A105B10529F40894611C711C52
:1019B000811C911C2F5F3F4F4F4F5F4F8091B402AE
:1019C0009091B502A091B602B091B7020296A11D06
:1019D000B11D281739074A075B07C1F0C9018219F1
:1019E00093096C5F7F4F02E06030700791F6E12C45
:1019F000A2E0FA2E012D112DAE0CBF1CC01ED11E6F
:101A00008038910518F019012A019BCF8091F904C3
:101A1000882331F481E061E0A40193010E94560B18
:101A200081E08093F9042091C7043091C80440E01C
:101A300050E0C401B3010E941A16FAE0969587950A
:101A400077956795FA95D1F72091B1023091B2025E
:101A500040E050E00E941A16AB01BC0181E00E94F8
:101A6000B00A1F910F91FF90EF90DF90CF90BF9041
:101A7000AF909F908F907F906F905F904F903F902E
:101A80002F9008956F927F928F929F92AF92BF9204
:101A9000CF92DF92EF92FF920F931F931092CB049D
:101AA0001092CC041092CD041092CE0460E070E04D
:101AB00080E090E00E94DA158091C702893E19F11A
:101AC0008B3E09F18091C5049091C60485559A4AD0
:101AD00009F0B0C060918D0470918E0480918F04E4
:101AE000909190046093CB047093CC048093CD04C8
:101AF0009093CE040E94DA158091C702893E19F0B6
:101B00008B3E09F097C08091D2029091D3029093BE
:101B1000B2028093B1028091D40290E09093C80405
:101B20008093C704A090D502B090D602B092D5049D
:101B3000A092D4048091F3029091F402A091F50256
:101B4000B091F6028093B8029093B902A093BA02C2
:101B5000B093BB02E090D404F090D5046091D7021A
:101B600070E080E090E02091EB023091EC02409137
:101B7000ED025091EE020E941A163B014C0100E06A
:101B800010E08091E3029091E402A091E502B0910F
:101B9000E602E80EF91E0A1F1B1FE60CF71C081DC3
:101BA000191DE092A902F092AA020093AB021093D1
:101BB000AC022091C7043091C804CC24DD2460918C
:101BC000E7027091E8028091E9029091EA026A19B5
:101BD0007B098C099D09661977098809990940E0F4
:101BE00050E00E944516C901DA018093B402909337
:101BF000B502A093B602B093B70281E060E020E0A6
:101C000030E040E050E00E94560B2091B402309149
:101C1000B5024091B6025091B70226173707480720
:101C2000590718F41092F90403C081E08093F90475
:101C300080E001C081E01F910F91FF90EF90DF9055
:101C4000CF90BF90AF909F908F907F906F900895AE
:101C50004F925F926F927F928F929F92AF92BF92BC
:101C6000CF92DF92EF92FF920F931F93CF93DF9368
:101C70005B016C01842E280139018091D40490917C
:101C8000D50402E0AA0CBB1CCC1CDD1C0A95D1F7C4
:101C90002091B1023091B2027C0100E010E080910D
:101CA000CB049091CC04A091CD04B091CE04E80E69
:101CB000F91E0A1F1B1F40E050E0C601B5010E943B
:101CC0004516E20EF31E041F151FC091B102D091FC
:101CD000B2029924C801B7010E94DA15882321F0C5
:101CE00093948AE09816B1F79E0140E050E0C60157
:101CF000B5010E944516FB01E953FD4F882031F4E0
:101D000020813181428153815F700CC040825182B9
:101D100062827382C801B7010E948C1520E030E016
:101D200040E050E0B901CA01DF91CF911F910F91BE
:101D3000FF90EF90DF90CF90BF90AF909F908F90EB
:101D40007F906F905F904F9008952F923F924F92A7
:101D50005F926F927F928F929F92AF92BF92CF923B
:101D6000DF92EF92FF920F931F93DF93CF93CDB744
:101D7000DEB728970FB6F894DEBF0FBECDBF8B83BA
:101D80007D836C83A090B802B090B902C090BA0273
:101D9000D090BB0281508E832091C7043091C8043B
:101DA000E090A902F090AA020091AB021091AC025F
:101DB000C601B501625070408040904040E050E064
:101DC0000E941A163B014C016E0C7F1C801E911E56
:101DD000EE24FF24870104C117012801260C371CBB
:101DE000481C591CC201B1010E94DA1580E290E042
:101DF000E4C0DA01A953BD4FB887AF83E981FA8106
:101E0000E955FD4FE081EE2321F4BE81B23020F48C
:101E10000DC1E53E09F4CEC0E981FA81E953FD4FD9
:101E20007597808175968F3009F4C4C09E81923079
:101E300008F0B4C020E030E08F819885820F931FB6
:101E4000AC81BD81A20FB31FFC0190818C919817CA
:101E500009F0B0C0822F8F5F2F5F3F4F2B303105CD
:101E600059F78B3009F0A6C0AF81B88554966D91B3
:101E70007C9155975A962D913C915B97BB81B130DF
:101E8000B1F52092FA043092FB044092FC04509287
:101E9000FD04CA01A0E0B0E08093970290939802FD
:101EA000A0939902B0939A02CB01A0E0B0E0DC01CC
:101EB0009927882740E050E0822B932BA42BB52B49
:101EC0008093D7049093D804A093D904B093DA04F4
:101ED000EF81F885848D958DA68DB78D8093AD02A9
:101EE0009093AE02A093AF02B093B002A1C0CB0119
:101EF000A0E0B0E05C0199248824C901A0E0B0E032
:101F0000882A992AAA2ABB2A85EEAF81B8858C93A4
:101F1000C201B1010E948C15EF81F885448D558D69
:101F2000668D778D80E00E94DD0B82E060E020E02E
:101F300030E040E050E00E94560B86169706A80657
:101F4000B90630F482E061E0A50194010E94560BCD
:101F5000C501B40140E000E010E020E030E00E9464
:101F6000280EF62EE72ED82EC92EC501B40141E069
:101F700000E010E020E030E00E94280E8F2D9E2D22
:101F8000AD2DBC2D4C015D01F7EF8F16FFEF9F06C5
:101F9000FFEFAF06FFE0BF06D8F248C0803151F036
:101FA000883041F03497408151816281738180E0B3
:101FB0000E94B00A89819A8180969A838983498197
:101FC0005A81405250408091B1029091B20248171C
:101FD000590708F40ECF0894E11CF11C011D111DD6
:101FE0008091C7049091C804A0E0B0E0E816F9061B
:101FF0000A071B0708F4F0CEC601B50140E000E077
:1020000010E020E030E00E94280E5B016C0197EFA9
:10201000A9169FEFB9069FEFC9069FE0D90630F4D5
:10202000A114B104C104D10409F0B6CE18861F82F0
:102030008F81988528960FB6F894DEBF0FBECDBF6E
:10204000CF91DF911F910F91FF90EF90DF90CF9094
:10205000BF90AF909F908F907F906F905F904F90C8
:102060003F902F900895CF93DF93EC010E942C0AAC
:10207000882321F482E0BE010E94A50EDF91CF915A
:1020800008952F923F924F925F926F927F928F921C
:102090009F92AF92BF92CF92DF92EF92FF920F93F7
:1020A0001F93DF93CF9300D000D0CDB7DEB7E82EDB
:1020B0008B01CB010E942C0A882311F082E08CC096
:1020C00081E0B8010E94A50E9C01009709F483C02D
:1020D00022242394E21411F481E07EC0DC015496A2
:1020E0008D919C915597A0E0B0E04C017724662437
:1020F000F901828D938DA0E0B0E0682A792A8A2ABE
:102100009B2AD9015C962D903D904D905C905F97F5
:1021100029823A824B825C8222243324210120913D
:10212000C7043091C804E090A902F090AA0200917F
:10213000AB021091AC02C401B30162507040804008
:10214000904040E050E00E941A165B016C01AE0C1A
:10215000BF1CC01ED11E10E024C0C601B501610F16
:10216000711D811D911D0E94DA15D201C101A201CC
:10217000910120503E4F4F4F5F4F29803A804B8056
:102180005C8082159305A405B50528F50196A11D6F
:10219000B11D82179307A407B50779F71F5F1C01CC
:1021A0002D012091C7043091C804812F90E082173F
:1021B000930798F2C401B30140E000E010E020E092
:1021C00030E00E94280E3B014C016115710581052C
:1021D000910509F0A4CF80E00F900F900F900F9021
:1021E000CF91DF911F910F91FF90EF90DF90CF90F3
:1021F000BF90AF909F908F907F906F905F904F9027
:102200003F902F9008952F923F924F925F926F923E
:102210007F928F929F92AF92BF92CF92DF92EF9276
:10222000FF920F931F93DF93CF93CDB7DEB72B971A
:102230000FB6F894DEBF0FBECDBF998788877B8726
:102240006A8781E0688579850E944110813009F0B4
:1022500056C06090D7047090D8048090D9049090B4
:10226000DA04AA24BB246501C401B30140E000E004
:1022700010E020E030E00E94280E6F3F2FEF720741
:102280002FEF82072FE0920741F00894A11CB11CA8
:10229000C11CD11C3B014C01E7CF2091C7043091F8
:1022A000C8046091B1027091B202E090B102F09066
:1022B000B20280E090E040E050E00E941A16A601D1
:1022C00095010E941A169B01AC016091AD027091BC
:1022D000AE028091AF029091B002621B730B840B2F
:1022E000950B00E010E0A80197010E944516298394
:1022F00021E02F831D821C821B821A8248C08230FB
:1023000011F484E0DDC282E060E020E030E040E0F3
:1023100050E00E94560B9B01AC018091B402909159
:10232000B502A091B602B091B70282179307A40735
:10233000B50740F42091B8023091B9024091BA0239
:102340005091BB02CA01B9010E94CC0A3B014C0169
:10235000611571058105910509F4B1C241E00FEFE6
:102360001FEF2FEF3FE00E94280EC401AA27BB27D2
:102370009D838C837B826A821092AD021092AE02A2
:102380001092AF021092B00220E01F8219821E82CA
:10239000AA24BB248981282E332444245524C40133
:1023A000B30162507040804090402223E1F12091BF
:1023B000C7043091C804E090A902F090AA020091ED
:1023C000AB021091AC02E20CF31C041D151D40E0A1
:1023D00050E00E941A16E60EF71E081F191FE09221
:1023E000BE02F092BF020093C0021093C10260913E
:1023F000BE027091BF028091C0029091C1020E9402
:10240000DA152091B1023091B20240E050E06091C3
:10241000AD027091AE028091AF029091B0020E9425
:10242000451609811FC02091C7043091C804E0906F
:10243000A902F090AA020091AB021091AC0240E018
:1024400050E00E941A16E60EF71E081F191FE092B0
:10245000BE02F092BF020093C0021093C10200E0DE
:1024600060E070E0EA84FB84EA0CFB1C9E81913002
:10247000D1F4FB01E953FD4FAAE0A0836F5F7F4FCA
:102480008091AD029091AE02A091AF02B091B002E6
:102490000196A11DB11D8093AD029093AE02A09351
:1024A000AF02B093B002F70110810894A11CB11CD7
:1024B000F7E1AF16B10411F41DE005C028E1A21642
:1024C000B10408F01EE7FB01E953FD4F10836F5F75
:1024D0007F4F8091AD029091AE02A091AF02B0917A
:1024E000B0020196A11DB11D8093AD029093AE0282
:1024F000A093AF02B093B0021D30C9F4E2E06030A7
:102500007E0719F4F1E0FE8319C0FB01E953FD4F8A
:102510002AE020836F5F7F4F0196A11DB11D80933C
:10252000AD029093AE02A093AF02B093B00282E0EE
:102530006030780710F41E822AC01E826091BE02AD
:102540007091BF028091C0029091C1020E948C15CF
:102550000F5F2091C7043091C804802F90E082174C
:102560009307E1F08091BE029091BF02A091C0025A
:10257000B091C1020196A11DB11D8093BE0290933E
:10258000BF02A093C002B093C10260E070E0089463
:10259000E11CF11C1E3709F069CF05C01E3709F098
:1025A0003FC060E070E08091AD029091AE02A091DA
:1025B000AF02B091B0020197A109B1098093AD02B9
:1025C0009093AE02A093AF02B093B00261507040FE
:1025D00006C0FB01E953FD4F10826F5F7F4F92E011
:1025E00060307907B0F36091BE027091BF028091B4
:1025F000C0029091C1020E948C1582E061E0A401AA
:1026000093010E94560B109200051092FF04109245
:10261000020510920105AF81AA2309F465C020C00C
:10262000C401B3010E94CC0A6B017C0161157105E4
:102630008105910509F443C1C401B30141E097014B
:1026400086010E94280EC701B60141E00FEF1FEF7F
:102650002FEF3FE00E94280E20E0360147019FCE79
:102660006091FA047091FB048091FC049091FD0448
:102670000E94DA15E0919702F0919802E953FD4F1C
:10268000138A128A8091010590910205978B868B9F
:102690008091FF0490910005918F808F2091AD0271
:1026A0003091AE024091AF025091B002848D958D71
:1026B000A68DB78D79018A01E81AF90A0A0B1B0B5E
:1026C000248F358F468F578F6091FA047091FB04E9
:1026D0008091FC049091FD040E948C1581E0B8016A
:1026E000A7010E94DD0BC9C08090B8029090B9028A
:1026F000A090BA02B090BB0222242091C70430916E
:10270000C804E090A902F090AA020091AB021091D7
:10271000AC02C501B401625070408040904040E07E
:1027200050E00E941A162B013C014E0C5F1C601EEB
:10273000711E33247DC073016201C30CD11CE11CE6
:10274000F11CC701B6010E94DA1500E210E065C075
:10275000222011F081E0B4C0AF0149535D4FF80170
:10276000E955FD4FE081EE2319F0E53E09F053C035
:1027700020E030E0BA01620F731FA885B985A20F6F
:10278000B31F8C91FB0180832F5F3F4F2B303105AE
:1027900089F7F801E953FD4F759720E221931192D3
:1027A000119220910105309102052193319380917E
:1027B000FF049091000581939193118210823496C9
:1027C000219331939183808334978C819D81918370
:1027D00080833696AA81BB81A193B1938091AD028B
:1027E0009091AE02A091AF02B091B002808391832C
:1027F000A283B383C701B6010E948C154091AD023C
:102800005091AE026091AF027091B00281E00E94DF
:10281000DD0B22242394005E1F4F8091B102909122
:10282000B202F801B097E817F90708F491CF339492
:102830002091C7043091C804832D90E0821793073C
:1028400008F479CFC501B40140E000E010E020E0D9
:1028500030E00E94280E6B017C01673FBFEF7B07D1
:10286000BFEF8B07BFE09B0700F16F3FEFEF7E07E5
:10287000EFEF8E07EFE09E0711F080E021C0C50169
:10288000B4010E94CC0A6B017C01C501B40141E096
:10289000970186010E94280EC701B60141E00FEFA3
:1028A0001FEF2FEF3FE00E94280E46015701C11491
:1028B000D104E104F10409F020CF83E001C082E0FB
:1028C0002B960FB6F894DEBF0FBECDBFCF91DF9130
:1028D0001F910F91FF90EF90DF90CF90BF90AF903E
:1028E0009F908F907F906F905F904F903F902F9030
:1028F0000895DF92EF92FF920F931F93D82E7A01E3
:102900008B018091CF048823B9F48D2D81518230C1
:1029100060F088E1D81649F089E1D81631F080E2FC
:10292000D81619F081E2D81639F439E0EE0CFF1C04
:10293000001F111F3A95D1F7C4988D2D80640E9415
:102940000F16812F9927AA27BB270E940F16C801AF
:10295000AA27BB270E940F16BB27A12F902F8F2DD0
:102960000E940F168E2D0E940F1688E0D81611F4C3
:1029700087E801C085E90E940F1610E002C01150DF
:10298000D1F00E941416082F8F3FC9F3882399F4C1
:102990008AE3D81681F40E94141686FF04C081E0F1
:1029A0008093CF0402C01092CF040E9414160E949C
:1029B00014160E9414160E941416C49A802F1F9198
:1029C0000F91FF90EF90DF900895AF92BF92CF925A
:1029D000DF92EF92FF920F931F937B018C015901BD
:1029E0006A0180E2B801A7010E9479148823B9F432
:1029F0000894E108F10801091109EA0CFB1C0C1DFF
:102A00001D1D81E2B801A7010E947914882339F4C1
:102A100086E240E050E060E070E00E9479141F918F
:102A20000F91FF90EF90DF90CF90BF90AF900895FF
:102A30001F93CF93DF9310E08FEF0E940F161F5F5D
:102A40001A30D1F7C498C0E0D0E080E040E050E018
:102A500060E070E00E9479142196C132D10511F432
:102A600081E056C0813089F7C49A8FEF0E940F161B
:102A70008FEF0E940F16C0E0D0E088E04AEA51E0F4
:102A800060E070E00E9479142196CF3FD10529F4CF
:102A900081E08093DF0411E003C0813071F712E020
:102AA000C0E0D0E087E340E050E060E070E00E94EA
:102AB000791489E240E050E060E070E40E9479140B
:102AC0002196CF3FD10511F482E022C0882351F72F
:102AD0001092CF041230E1F4C0E0D0E08AE340E08D
:102AE00050E060E070E00E9479142196CF3FD1055C
:102AF00019F41092DF0402C0882381F78091CF047B
:102B0000813011F482E001C083E08093DF0480E033
:102B1000DF91CF911F910895CF93DF93AB01BC015B
:102B200088E10E947914882311F0982F3FC0C4983F
:102B30008EEF0E940F16C0E0D0E0FE01E953FD4F7A
:102B400080810E940F16219682E0C030D807A9F735
:102B50008FEF0E940F168FEF0E940F160E9414161F
:102B6000982F8F71853041F0C49A20C08FEFCF3FEE
:102B7000D80791F0219602C0C0E0D0E00E94141660
:102B80008823A1F3C49A8FEF0E940F16C49808C03F
:102B90008FEFCF3FD80719F4C49A91E007C0219670
:102BA0000E9414168823A1F3C49A90E0892FDF9124
:102BB000CF9108951F93CF93DF93AB01BC0181E1C7
:102BC0000E947914182F882309F5C498C0E0D0E03A
:102BD00005C0219719F4C49A11E018C00E94141678
:102BE0008E3FB9F7C0E0D0E00E941416FE01E95311
:102BF000FD4F8083219682E0C030D807A9F70E945C
:102C000014160E9414160E941416C49A812FDF9184
:102C1000CF911F91089582E58DB91EB808958FB99F
:102C2000779BFECF8FB108958FEF8FB9779BFECF43
:102C30008FB10895629FD001739FF001829FE00DD4
:102C4000F11D649FE00DF11D929FF00D839FF00D2B
:102C5000749FF00D659FF00D9927729FB00DE11DD7
:102C6000F91F639FB00DE11DF91FBD01CF011124B4
:102C70000895991B79E004C0991F961708F0961BD8
:102C8000881F7A95C9F780950895A1E21A2EAA1B8C
:102C9000BB1BFD010DC0AA1FBB1FEE1FFF1FA2170C
:102CA000B307E407F50720F0A21BB30BE40BF50B09
:102CB000661F771F881F991F1A9469F76095709592
:102CC000809590959B01AC01BD01CF010895FB015A
:102CD0009F01E8944230C4F04532B4F44A3029F4FC
:102CE00097FB1EF4909581959F4F642F77270E9444
:102CF0009816805D8A330CF0895D8193CB01009733
:102D0000A1F716F45DE251931082C9010C94881664
:102D1000DC01FC01672F71917723E1F7329704C042
:102D20007C916D9370836291AE17BF07C8F30895CD
:102D3000AA1BBB1B51E107C0AA1FBB1FA617B707E1
:102D400010F0A61BB70B881F991F5A95A9F78095FD
:0C2D50009095BC01CD010895F894FFCFD0
:102D5C0030002F002F3230003A00446174613A2069
:102D6C0000437A61733A2000205800204F004156EE
:102D7C00522D444F5320762000526F7A6D69617248
:102D8C002000576F6C6E65200053797374656D204D
:102D9C004F4B00557374617769616E696520676F7D
:102DAC00647A2E00476F647A696E613D00557374C6
:102DBC00617769616E6965206D696E7574004D6926
:102DCC006E7574613D00557374617769616E6965E8
:102DDC0020646E696100447A69656E3D00557374B8
:102DEC00617769616E6965206D6965732E004D6947
:102DFC0065736961633D0055732E207A6170697348
:102E0C002053442F4D4D43005A617069737A2062F0
:102E1C00756620692077796C005A61702E20646F7A
:102E2C0020627566206920776C005A617069733A6C
:102E3C002000557374617769616E696520726F6BE0
:102E4C007500526F6B3D323000426C61643A206EFB
:102E5C0069657564616E65007574776F727A656EFD
:102E6C00696520706C696B7500426C61643A6272C2
:102E7C00616B20776F6C6E2E006B6C617374726F6C
:102E8C007700426C6164207A6170697375006B6CB9
:102E9C00617374726100426C65646E61206E617A5C
:102EAC00776100706C696B75005A61706973207280
:102EBC00656B6F726475005745005759004F5A0087
:102ECC004F57004F58004F5900426C61642121212B
:102EDC00004272616B206B6172747920534400491B
:102EEC006E69636A616C697A61636A61004B6172D5
:102EFC0074612053442074797075007665722E20AD
:102F0C00312E78004B6172746120747970750048B1
:102F1C006967682053442043617061636974790068
:102F2C007665722E20322E78006E69657A6E616E2F
:102F3C0065676F00426C6164207061727479636ABA
:102F4C00692E004272616B204641543332210001DC
:0E2F5C000057455F57592E545854000000008E
:00000001FF
