:100000000C942A000C94D1000C9447000C944700E7
:100010000C9447000C9447000C9447000C94470044
:100020000C9447000C9447000C9447000C94470034
:100030000C9447000C9447000C9447000C94470024
:100040000C9447000C9447000C9447000C94470014
:100050000C94470011241FBECFE5D8E0DEBFCDBF12
:1000600010E0A0E6B0E0EAEDFAE002C005900D92E3
:10007000AE38B107D9F710E0AEE8B0E001C01D928C
:10008000A439B107E1F70E9449000C946B050C9468
:100090000000BF92CF92DF92EF92FF920F931F93D7
:1000A000DF93CF93CDB7DEB761970FB6F894DEBF7D
:1000B0000FBECDBF0E94B9000E947E020E949B012C
:1000C000BD9A78946E010894C11CD11C90E2B92E9F
:1000D0008E010D5F1F4F80E7E82E80E0F82E80E054
:1000E00090E060E070E00E94AD0180E690E00E9448
:1000F000330280E090E061E070E00E94AD01C60153
:100100000E94C300882359F30E94A90088B38B255D
:1001100088BB00D000D000D0EDB7FEB73196ADB7A8
:10012000BEB712961C930E931197F382E2828981D7
:100130009A81958384830E9493028DB79EB7069619
:100140000FB6F8949EBF0FBE8DBFC8010E94330248
:10015000C6CF109290008EE08093910010928F0095
:1001600010928E0085E080937B008BB780648BBFFC
:10017000089585B7816085BF8A981FBC82E08EBDD7
:100180000E94A9000895FC0180919000882331F01D
:1001900080918E0090918F00918380838091900058
:1001A00008951F920F920FB60F9211241F932F9351
:1001B0003F934F935F936F937F938F939F93AF93EF
:1001C000BF93EF93FF932CB53DB5829902C010E029
:1001D00001C012E0C9018D569A408F5E964010F41E
:1001E0001C5F07C028573340235F364010F00E9441
:1001F000A90020917B002530D1F42091910021505D
:100200002093910040918E0050918F0081E090E00A
:1002100002C0880F991F2A95E2F7842B952B9093A3
:100220008F0080938E0081E080937B0047C0E22F97
:10023000F0E0E958FF4F808190E002C095958795E6
:100240001A95E2F7982F9370921711F0243018F056
:100250000E94A90035C090937B00923031F48091C8
:10026000910081508093910018C09130B1F4809139
:10027000910081508093910040918E0050918F00A9
:1002800021E030E002C0220F331F8A95E2F7242BD1
:10029000352B30938F0020938E008091910088231E
:1002A00069F4992311F0923049F486E080937B0041
:1002B00081E0809390008BB78F7B8BBF1DBC1CBCF3
:1002C000FF91EF91BF91AF919F918F917F916F912E
:1002D0005F914F913F912F911F910F900FBE0F9003
:1002E0001F901895282F662311F0D99A01C0D9982C
:1002F0009BB39F70822F807F892B8BBBDB9A000082
:1003000000000000DB982295207F292B2BBBDB9A75
:10031000000000000000DB98906F9BBB80E49FE131
:100320000197F1F7089561E00E947201089560E07D
:100330000E947201089581E00E949701109292003C
:100340001092930080E09AEF0197F1F70895DB9AFD
:10035000000000000000DB9808950F931F93082F02
:10036000162F662331F480580E9497011092930053
:100370000FC0613011F4805407C0623011F480570F
:1003800003C0633029F480530E94970110939300B7
:10039000009392001F910F9108951F9380ED0E948A
:1003A00097011092920013E0109393008CE790E075
:1003B0000E94330280ED0E949701109292001093E8
:1003C00093001F91089580919300833039F48091B8
:1003D00092008823E9F40E946B020895882339F47F
:1003E000809192008823A1F40E94550208958130E3
:1003F00039F480919200882359F40E943F020895B5
:10040000823031F480919200882311F40E94CD0152
:1004100008951F93182F8A3019F40E94E30121C018
:10042000809192008031A9F480919300882319F47F
:100430000E9455020EC0813019F40E943F0209C08B
:10044000823019F40E94CD0104C0833011F40E945F
:100450006B02812F0E949301809192008F5F8093A5
:1004600092001F910895CF93DF93EC0102C00E9488
:10047000090289918823D9F7DF91CF9108951F93BD
:1004800080E90E9497011092920012E0109393006D
:100490008CE790E00E94330280E90E94970110925D
:1004A0009200109393001F9108951F9380EC0E9477
:1004B00097011092920011E0109393008CE790E066
:1004C0000E94330280EC0E949701109292001093D8
:1004D00093001F91089580E80E9497011092920066
:1004E000109293008CE790E00E94330280E80E9413
:1004F0009701109292001092930008958EEF8ABB9C
:1005000080E09AEF0197F1F780E20E94970188E27C
:100510000E94970184E00E9497018CE00E9497015D
:100520000E949B010895AEE0B0E0E9E9F2E00C948E
:1005300042050D891E8986E08C831A8309838FEF1B
:100540009FE79E838D839E01275E3F4FCE010196DC
:100550006F89788DA9010E94B7022F813885020F1B
:10056000131FF80110822E96E4E00C945E05ABE0B8
:10057000B0E0EDEBF2E00C9434053C012B015A01A4
:10058000FC0117821682838181FD03C06FEF7FEF2C
:10059000C6C19AE0892E1E010894211C311CF3016A
:1005A0002381F20123FD859123FF81912F0188236F
:1005B00009F4B2C1853239F423FD859123FF81917D
:1005C0002F01853229F490E0B3010E94AA04E7CFFD
:1005D000982FFF24EE249924FFE1FF15D0F09B32E1
:1005E00069F09C3228F4903259F0933291F40EC0A5
:1005F0009D3249F0903369F441E024C052E0F52A7D
:1006000084E0F82A28C098E0F92A25C0E0E1FE2A13
:1006100022C0F7FC29C0892F80538A3070F4F6FE7F
:1006200005C0989C902C1124980E15C0E89CE02CD5
:100630001124E80EF0E2FF2A0EC09E3229F4F6FCE7
:100640006BC140E4F42A07C09C3619F450E8F52A3F
:1006500002C0983649F4F20123FD959123FF919150
:100660002F01992309F0B8CF892F8554833018F0D2
:100670008052833038F444E050E0A40EB51E5FE3AE
:1006800059830FC0933631F0933779F0933509F0E1
:1006900056C020C0F5018081898342E050E0A40E5D
:1006A000B51E610101E010E012C0F501C080D180EB
:1006B000F6FC03C06FEF7FEF02C0692D70E042E0EF
:1006C00050E0A40EB51EC6010E949F048C015FE796
:1006D000F52214C0F501C080D180F6FC03C06FEF95
:1006E0007FEF02C0692D70E042E050E0A40EB51E1D
:1006F000C6010E9494048C0150E8F52AF3FE07C05D
:100700001AC080E290E0B3010E94AA04EA948E2D00
:1007100090E008171907A8F30EC0F601F7FC8591C1
:10072000F7FE81916F0190E0B3010E94AA04E110ED
:10073000EA94015010400115110579F7EAC094368A
:1007400011F0993669F5F7FE08C0F5012081318175
:100750004281538184E090E00AC0F501808191815B
:100760009C01442737FD4095542F82E090E0A80E6D
:10077000B91E9FE6F92257FF09C050954095309564
:1007800021953F4F4F4F5F4FE0E8FE2ACA01B90164
:10079000A1012AE030E00E94D604D82ED21840C031
:1007A000953729F41F2D1F7E2AE030E01DC01F2D34
:1007B000197F9F3661F0903720F4983509F0ACC06E
:1007C0000FC0903739F0983709F0A6C004C028E070
:1007D00030E00AC0106114FD146020E130E004C074
:1007E00014FD166020E132E017FF08C0F5016081BA
:1007F00071818281938144E050E008C0F5018081DD
:100800009181BC0180E090E042E050E0A40EB51E72
:10081000A1010E94D604D82ED2188FE7F82EF1221B
:10082000F6FE0BC05EEFF522D91438F4F4FE07C0D3
:10083000F2FC05C08FEEF82202C01D2D01C0192D5B
:10084000F4FE0DC0FE01ED0DF11D8081803319F421
:1008500099EEF92208C01F5FF2FE05C003C08F2D7C
:10086000867809F01F5F0F2DF3FC14C0F0FE0FC057
:100870001E1510F09D2C0BC09D2C9E0C911A1E2D48
:1008800006C080E290E0B3010E94AA041F5F1E151B
:10089000C0F304C01E1510F4E11A01C0EE2404FFD9
:1008A0000FC080E390E0B3010E94AA0402FF1DC0C4
:1008B00001FD03C088E790E00EC088E590E00BC022
:1008C000802F867891F001FF02C08BE201C080E2A8
:1008D000F7FC8DE290E0B3010E94AA0406C080E319
:1008E00090E0B3010E94AA049A94D914C0F3DA9458
:1008F000F101ED0DF11D808190E0B3010E94AA0489
:10090000DD20A9F706C080E290E0B3010E94AA04AE
:10091000EA94EE20C1F743CEF30166817781CB01E3
:100920002B96E2E10C945005FC010590615070405B
:100930000110D8F7809590958E0F9F1F0895FC01A8
:100940006150704001900110D8F7809590958E0FFE
:100950009F1F08950F931F93CF93DF938C01EB019B
:100960008B8181FF1BC082FF0DC02E813F818C8156
:100970009D812817390764F4E881F9810193F9838F
:10098000E88306C0E885F985802F0995892B31F425
:100990008E819F8101969F838E8302C00FEF1FEF90
:1009A000C801DF91CF911F910F910895FA01AA27F5
:1009B000283051F1203181F1E8946F936E7F6E5FA2
:1009C0007F4F8F4F9F4FAF4FB1E03ED0B4E03CD050
:1009D000670F781F891F9A1FA11D680F791F8A1F33
:1009E000911DA11D6A0F711D811D911DA11D20D09A
:1009F00009F468943F912AE0269F11243019305D54
:100A00003193DEF6CF010895462F4770405D419344
:100A1000B3E00FD0C9F7F6CF462F4F70405D4A3391
:100A200018F0495D31FD4052419302D0A9F7EACF59
:100A3000B4E0A6959795879577956795BA95C9F788
:100A400000976105710508959B01AC010A2E06947B
:100A50005795479537952795BA95C9F7620F731F34
:100A6000841F951FA01D08952F923F924F925F9271
:100A70006F927F928F929F92AF92BF92CF92DF92AE
:100A8000EF92FF920F931F93CF93DF93CDB7DEB713
:100A9000CA1BDB0B0FB6F894DEBF0FBECDBF0994A7
:100AA0002A88398848885F846E847D848C849B84FE
:100AB000AA84B984C884DF80EE80FD800C811B810C
:100AC000AA81B981CE0FD11D0FB6F894DEBF0FBE3B
:0A0AD000CDBFED010895F894FFCFAB
:100ADA004952205243352070726F746F636F6C00F5
:100AEA002564202020200001919BFB052020202046
:0E0AFA0020202020202020202020202000006E
:00000001FF
